:1000000004308A004F2C0000FF00030E8301A10082
:100010000A08A0008A010408A2007708A300780853
:10002000A4007908A5007A08A6007B08A70083131E
:1000300083128B1E1D280B193028220884002308E8
:10004000F7002408F8002508F9002608FA00270818
:10005000FB0020088A00210E8300FF0E7F0E09009E
:100060008A110A12212A0A108A100A113A3E03182C
:100070008A0A820000340034003400340034003432
:1000800000345F3400340034003407340034073463
:10009000003414347F3414347F34143424342A3438
:1000A0007F342A34123423341334083464346234F1
:1000B0003634493455342234503400340534033452
:1000C0000034003400341C34223441340034003411
:1000D000413422341C340034143408343E3408349F
:1000E0001434083408343E340834083400345034AE
:1000F0003034003400340834083408340834083408
:100100000034603460340034003420341034083457
:10011000043402343E345134493445343E340034DE
:1001200042347F34403400344234613451344934F1
:1001300046342134413445344B343134183414348A
:1001400012347F341034273445344534453439343F
:100150003C344A344934493430340134713409343C
:10016000053403343634493449344934363406349A
:100170004934493429341E3400343634363400349A
:100180000034003456343634003400340834143427
:1001900022344134003414341434143414341434F8
:1001A00000344134223414340834023401345134DC
:1001B0000934063432344934793441343E347E349F
:1001C0001134113411347E347F3449344934493484
:1001D00036343E3441344134413422347F34413466
:1001E000413422341C347F34493449344934413455
:1001F0007F3409340934093401343E3441344934FC
:1002000049347A347F340834083408347F34003475
:1002100041347F34413400342034403441343F345D
:1002200001347F3408341434223441347F34403470
:100230004034403440347F3402340C3402347F3450
:100240007F340434083410347F343E344134413434
:1002500041343E340A148A100A11313E03188A0AC6
:1002600082007F3409340934093406343E34413481
:10027000513421345E347F340934193429344634FE
:1002800046344934493449343134013401347F34FB
:10029000013401343F344034403440343F341F345F
:1002A0002034403420341F343F3440343834403418
:1002B0003F3463341434083414346334073408345A
:1002C000703408340734613451344934453443348C
:1002D00000347F344134413400340234043408346F
:1002E000103420340034413441347F340034043439
:1002F0000234013402340434403440344034403455
:100300004034003401340234043400342034543492
:100310005434543478347F34483444344434383496
:100320003834443444344434203438344434443449
:1003300048347F3438345434543454341834083402
:100340007E340934013402340C3452345234523481
:100350003E347F3408340434043478340034443474
:100360007D34403400342034403444343D3400344F
:100370007F341034283444340034003441347F3422
:10038000403400347C3404341834043478347C34FD
:100390000834043404347834383444344434443431
:1003A00038347C3414341434143408340834143499
:1003B000143418347C347C34083404340434083461
:1003C0004834543454345434203404343F344434A2
:1003D000403420343C344034403420347C341C34A9
:1003E0002034403420341C343C34403430344034E5
:1003F0003C34443428341034283444340C345034DD
:10040000503450343C344434643454344C344434E4
:1004100000340834363441340034003400347F343E
:10042000003400340034413436340834003410349D
:1004300008340834103408347834463441344634AF
:100440007834B00A3008463C031D2C2AB0018316CC
:1004500085100230831285064F124F0883168700DD
:100460001030831287060B118A110A121D28D4320C
:10047000733A6510D334E53665377310431B350086
:1004800052214A17CE2254104536E53174396F3760
:10049000E9317300AD162022F234F6327210C23CFC
:1004A000A0266139EC376E10AD1600005430840080
:1004B0008313000803196A2A0530F800F701F70BC7
:1004C0005F2AF80B5E2A2E30F700F70B652A682AA0
:1004D000800B5C2A08001308710893008316140C23
:1004E000031C6F2A83120800061383160613831257
:1004F0000612831606127008F10083126B2206178B
:10050000831606138312080006138316061383123C
:1005100006128316061283125308F1006B22540848
:10052000F1006B22061783160613831208000613C8
:100530008316061383120612831606124230F10048
:1005400083126B22F1016B228330F1006B22433066
:10055000F1006B22F1016B228330F1006B22061651
:10056000831606128312D501D4015508443C031C9E
:10057000C62A031DBF2A54080F3C031CC62A530871
:10058000F1006B22D40A0319D50AB52A061783167F
:1005900006138312080086128316861283128615AC
:1005A000831686118312061583160611831206160A
:1005B00083160612831206178316061383128616F5
:1005C000831686122C30F000831274220230D3007E
:1005D0000130D40084221030D3003430D40084227F
:1005E0002030D3000130D40084222230D3000130E7
:1005F000D40084222430D3000530D4008422263055
:10060000D3000F30D40084222830D300D4018422B8
:100610002A30D300B530D40084223030D3004130AA
:10062000D40084223230D3000130D400842234300C
:10063000D3008230D40084224030D300D4018422FD
:10064000D30197225130F00074228A110A12872CAC
:1006500002306807EC00023068076A07ED0069089D
:10066000EE006B086907FF3EEF004230F000742295
:100670006C08F00074226D08F00074224330F00022
:1006800074226E08F00074226F08F00074220800D3
:100690000613831606138312061683160612831298
:1006A0006808F1006B2206178316061383120800F0
:1006B0005508E8005608E9005708EA005808EB001A
:1006C0002823D901570859020318742BFF30DB0087
:1006D000DA0158085A020318722B5308E80048231D
:1006E000DA0A692BD90A622B0800500884008313A8
:1006F0005118831756088000840A8001D00A031914
:10070000D10A0800831603178C170C140000000090
:1007100083120C087F390319C62B0313D300031768
:100720000D080313D40003170F080313D500530853
:10073000D6007523540803178D00031355080317BB
:100740008F0083168C170C140000000083120C0D10
:100750000E0D7F390319C62B0313D30003170D08A1
:100760000313D40003170F080313D5005308D60052
:100770007523540803178D000313550803178F00C2
:100780008D0A03198F0A0313822B03170313080022
:10079000F701F8016A0803106B18F707F70CF80C5B
:1007A000EB18F707F70CF80C6B19F707F70CF80CB8
:1007B000EB19F707F70CF80C6B1AF707F70CF80CA6
:1007C000EB1AF707F70CF80C6B1BF707F70CF80C94
:1007D000EB1BF707F70CF80C0800DC0159085C026A
:1007E00003184E2C5C08570784008313581883178E
:1007F0000008DD005408DF005308DE005608E10061
:100800005508E0005D08E2005A08E3005B08E400D8
:100810006308E8006408E9000530EA000830EB00EE
:100820002823E5016508043C031C4A2C62084F3C60
:10083000031C262C6208E03EE900EA000530EB00CC
:10084000C823650878073320F800E70062084F3CAA
:100850000318362C6208B03EE900EA000530EB00D0
:10086000C823650878072A21F800E700E601660832
:10087000073C031C482C671C412C6008E8004823F7
:10088000442C5E08E80048230310E70CE60A372CE6
:10089000E50A122C0630DA07DC0AEE2B0800840188
:1008A00083131F308305AA01AB01FF30CF00D101B4
:1008B000D00183161F149F141F159F118312A801C6
:1008C000A9019412CF124F088316870083124F1686
:1008D0004F08831687008312CF114F0883168700B5
:1008E0002030831294004030831694000108C039F0
:1008F000043881001F149F141F159F1183121F10AD
:100900008B16C0308B04C830D4005622CB2AE0307E
:10091000D30097220230D3009630D4005622D30B56
:100920008C2C1C30D30097220230D3009630D40098
:100930005622D30B962C0330D30097220230D300DB
:100940009630D4005622D30BA02CD301972202302C
:10095000D300FA30D4005622D30BA92CD401FF3097
:10096000D300D501D6010A30D7008230D8005823F1
:10097000D401D3010A30D500D601D7008230D80087
:100980005823D401E030D3001430D500D6010A300A
:10099000D7008230D8005823D4011C30D3001E3039
:1009A000D500D6010A30D7008230D8005823D401B0
:1009B0000330D3002830D500D6010A30D70082306A
:1009C000D8005823D401E330D3003230D500D6010B
:1009D0000A30D7008230D8005823D4010330D30026
:1009E0003C30D500D6010A30D7008230D8005823D9
:1009F000D401FC30D3004630D500D6010A30D700F0
:100A00008230D8005823D401F030D3005030D500C4
:100A1000D6010A30D7008230D8005823D401FF30E5
:100A2000D3005A30D500D6010A30D7008230D80022
:100A30005823D401D3016430D500D6010A30D70041
:100A40008230D8005823D401E030D3006E30D50076
:100A5000D6010A30D7008230D8005823D4011C3088
:100A6000D3007830D500D6010A30D7008230D800C4
:100A700058230830D300FA30D4005622D30B3B2D34
:100A8000D3019722D1013130D000373003178D00C8
:100A900002308F0003138223D401D301D601FF302B
:100AA000D500D8013130D7001130D900DA01DB018F
:100AB000ED230230D3009630D4005622D30B5B2DA9
:100AC000D4010330D300D5015E30D6008230D70088
:100AD0000A30D80058230230D3009630D400562272
:100AE000D30B6D2DD1013130D000403003178D0074
:100AF00002308F0003138223D4010330D300D601C8
:100B0000FF30D500D8013130D7001330D9000A307A
:100B1000DA006030DB00ED230230D3009630D400E1
:100B20005622D30B8E2DD1013130D0004A3003171D
:100B30008D0002308F0003138223D401D301D6012C
:100B4000FF30D500D8013130D7001630D900DA0196
:100B50006E30DB00ED23D4011C30D3001430D500FF
:100B6000D6001E30D700D80058230230D30096306C
:100B7000D4005622D30BB72DD4010330D30032302A
:100B8000D5001430D6001E30D700D80058230230CC
:100B9000D3009630D4005622D30BC92DD401E030B7
:100BA000D3005030D5001430D6001E30D700D80006
:100BB00058230230D3009630D4005622D30BDB2DBD
:100BC000D401E330D3001430D5003430D6001E30C9
:100BD000D700D80058230230D3009630D4005622D4
:100BE000D30BED2DD401F030D3003230D5003530A9
:100BF000D6001E30D700D80058230230D3009630DC
:100C0000D4005622D30BFF2DD401FC30D30050303A
:100C1000D5003430D6001E30D700D800582302301B
:100C2000D3009630D4005622D30B112E162E63001B
:02400E003A3D39
:00000001FF
;PIC16F876
;CRC=7C9A  CREATED="21-jan-15 19:53"
